{
  "_format": "hh-sol-artifact-1",
  "contractName": "DepositContract",
  "sourceName": "contracts/DepositContract.sol",
  "abi": [
    {
      "inputs": [
        {
          "internalType": "address",
          "name": "_erc20Token",
          "type": "address"
        },
        {
          "internalType": "address",
          "name": "_erc721Token",
          "type": "address"
        }
      ],
      "stateMutability": "nonpayable",
      "type": "constructor"
    },
    {
      "inputs": [
        {
          "internalType": "uint256",
          "name": "amount",
          "type": "uint256"
        }
      ],
      "name": "deposit",
      "outputs": [],
      "stateMutability": "nonpayable",
      "type": "function"
    },
    {
      "inputs": [
        {
          "internalType": "address",
          "name": "",
          "type": "address"
        }
      ],
      "name": "deposits",
      "outputs": [
        {
          "internalType": "uint256",
          "name": "",
          "type": "uint256"
        }
      ],
      "stateMutability": "view",
      "type": "function"
    },
    {
      "inputs": [],
      "name": "erc20Token",
      "outputs": [
        {
          "internalType": "contract IERC20",
          "name": "",
          "type": "address"
        }
      ],
      "stateMutability": "view",
      "type": "function"
    },
    {
      "inputs": [],
      "name": "erc721Token",
      "outputs": [
        {
          "internalType": "contract MyNFT",
          "name": "",
          "type": "address"
        }
      ],
      "stateMutability": "view",
      "type": "function"
    },
    {
      "inputs": [
        {
          "internalType": "address",
          "name": "",
          "type": "address"
        }
      ],
      "name": "totalDeposits",
      "outputs": [
        {
          "internalType": "uint256",
          "name": "",
          "type": "uint256"
        }
      ],
      "stateMutability": "view",
      "type": "function"
    },
    {
      "inputs": [],
      "name": "viewAmmount",
      "outputs": [
        {
          "internalType": "uint256",
          "name": "",
          "type": "uint256"
        }
      ],
      "stateMutability": "view",
      "type": "function"
    }
  ],
  "bytecode": "0x608060405234801561001057600080fd5b50604051610ae8380380610ae88339818101604052810190610032919061011d565b816000806101000a81548173ffffffffffffffffffffffffffffffffffffffff021916908373ffffffffffffffffffffffffffffffffffffffff16021790555080600160006101000a81548173ffffffffffffffffffffffffffffffffffffffff021916908373ffffffffffffffffffffffffffffffffffffffff160217905550505061015d565b600080fd5b600073ffffffffffffffffffffffffffffffffffffffff82169050919050565b60006100ea826100bf565b9050919050565b6100fa816100df565b811461010557600080fd5b50565b600081519050610117816100f1565b92915050565b60008060408385031215610134576101336100ba565b5b600061014285828601610108565b925050602061015385828601610108565b9150509250929050565b61097c8061016c6000396000f3fe608060405234801561001057600080fd5b50600436106100625760003560e01c80635f2d6bcd146100675780638a13eea714610085578063b6b55f25146100a3578063bbdefffc146100bf578063e9403256146100dd578063fc7e286d1461010d575b600080fd5b61006f61013d565b60405161007c91906105d6565b60405180910390f35b61008d610163565b60405161009a9190610612565b60405180910390f35b6100bd60048036038101906100b89190610668565b610187565b005b6100c7610490565b6040516100d491906106a4565b60405180910390f35b6100f760048036038101906100f291906106fd565b610527565b60405161010491906106a4565b60405180910390f35b610127600480360381019061012291906106fd565b61053f565b60405161013491906106a4565b60405180910390f35b600160009054906101000a900473ffffffffffffffffffffffffffffffffffffffff1681565b60008054906101000a900473ffffffffffffffffffffffffffffffffffffffff1681565b600081116101ca576040517f08c379a00000000000000000000000000000000000000000000000000000000081526004016101c190610787565b60405180910390fd5b60008054906101000a900473ffffffffffffffffffffffffffffffffffffffff1673ffffffffffffffffffffffffffffffffffffffff166323b872dd3330846040518463ffffffff1660e01b8152600401610227939291906107b6565b6020604051808303816000875af1158015610246573d6000803e3d6000fd5b505050506040513d601f19601f8201168201806040525081019061026a9190610825565b5080600360003373ffffffffffffffffffffffffffffffffffffffff1673ffffffffffffffffffffffffffffffffffffffff16815260200190815260200160002060008282546102ba9190610881565b9250508190555080600260003373ffffffffffffffffffffffffffffffffffffffff1673ffffffffffffffffffffffffffffffffffffffff16815260200190815260200160002060008282546103109190610881565b9250508190555069021e19e0c9bab2400000600260003373ffffffffffffffffffffffffffffffffffffffff1673ffffffffffffffffffffffffffffffffffffffff168152602001908152602001600020541061048d57600160009054906101000a900473ffffffffffffffffffffffffffffffffffffffff1673ffffffffffffffffffffffffffffffffffffffff166354ba0f27336040518263ffffffff1660e01b81526004016103c291906108b5565b600060405180830381600087803b1580156103dc57600080fd5b505af11580156103f0573d6000803e3d6000fd5b5050505069021e19e0c9bab2400000600260003373ffffffffffffffffffffffffffffffffffffffff1673ffffffffffffffffffffffffffffffffffffffff1681526020019081526020016000205461044991906108d0565b600260003373ffffffffffffffffffffffffffffffffffffffff1673ffffffffffffffffffffffffffffffffffffffff168152602001908152602001600020819055505b50565b60008060009054906101000a900473ffffffffffffffffffffffffffffffffffffffff1673ffffffffffffffffffffffffffffffffffffffff166318160ddd6040518163ffffffff1660e01b8152600401602060405180830381865afa1580156104fe573d6000803e3d6000fd5b505050506040513d601f19601f820116820180604052508101906105229190610919565b905090565b60036020528060005260406000206000915090505481565b60026020528060005260406000206000915090505481565b600073ffffffffffffffffffffffffffffffffffffffff82169050919050565b6000819050919050565b600061059c61059761059284610557565b610577565b610557565b9050919050565b60006105ae82610581565b9050919050565b60006105c0826105a3565b9050919050565b6105d0816105b5565b82525050565b60006020820190506105eb60008301846105c7565b92915050565b60006105fc826105a3565b9050919050565b61060c816105f1565b82525050565b60006020820190506106276000830184610603565b92915050565b600080fd5b6000819050919050565b61064581610632565b811461065057600080fd5b50565b6000813590506106628161063c565b92915050565b60006020828403121561067e5761067d61062d565b5b600061068c84828501610653565b91505092915050565b61069e81610632565b82525050565b60006020820190506106b96000830184610695565b92915050565b60006106ca82610557565b9050919050565b6106da816106bf565b81146106e557600080fd5b50565b6000813590506106f7816106d1565b92915050565b6000602082840312156107135761071261062d565b5b6000610721848285016106e8565b91505092915050565b600082825260208201905092915050565b7f416d6f756e74206d7573742062652067726561746572207468616e207a65726f600082015250565b600061077160208361072a565b915061077c8261073b565b602082019050919050565b600060208201905081810360008301526107a081610764565b9050919050565b6107b0816106bf565b82525050565b60006060820190506107cb60008301866107a7565b6107d860208301856107a7565b6107e56040830184610695565b949350505050565b60008115159050919050565b610802816107ed565b811461080d57600080fd5b50565b60008151905061081f816107f9565b92915050565b60006020828403121561083b5761083a61062d565b5b600061084984828501610810565b91505092915050565b7f4e487b7100000000000000000000000000000000000000000000000000000000600052601160045260246000fd5b600061088c82610632565b915061089783610632565b92508282019050808211156108af576108ae610852565b5b92915050565b60006020820190506108ca60008301846107a7565b92915050565b60006108db82610632565b91506108e683610632565b92508282039050818111156108fe576108fd610852565b5b92915050565b6000815190506109138161063c565b92915050565b60006020828403121561092f5761092e61062d565b5b600061093d84828501610904565b9150509291505056fea26469706673582212201885403c33a3177825d9e1bd46cc8ee6a4b2a367fb8a24b9fe946f1c8d308b0b64736f6c63430008140033",
  "linkReferences": {},
  "deployedLinkReferences": {}
}