{
  "_format": "hh-sol-artifact-1",
  "contractName": "MyNFT",
  "sourceName": "contracts/MyNFT.sol",
  "abi": [
    {
      "inputs": [
        {
          "internalType": "string",
          "name": "name",
          "type": "string"
        },
        {
          "internalType": "string",
          "name": "symbol",
          "type": "string"
        }
      ],
      "stateMutability": "nonpayable",
      "type": "constructor"
    },
    {
      "inputs": [
        {
          "internalType": "address",
          "name": "sender",
          "type": "address"
        },
        {
          "internalType": "uint256",
          "name": "tokenId",
          "type": "uint256"
        },
        {
          "internalType": "address",
          "name": "owner",
          "type": "address"
        }
      ],
      "name": "ERC721IncorrectOwner",
      "type": "error"
    },
    {
      "inputs": [
        {
          "internalType": "address",
          "name": "operator",
          "type": "address"
        },
        {
          "internalType": "uint256",
          "name": "tokenId",
          "type": "uint256"
        }
      ],
      "name": "ERC721InsufficientApproval",
      "type": "error"
    },
    {
      "inputs": [
        {
          "internalType": "address",
          "name": "approver",
          "type": "address"
        }
      ],
      "name": "ERC721InvalidApprover",
      "type": "error"
    },
    {
      "inputs": [
        {
          "internalType": "address",
          "name": "operator",
          "type": "address"
        }
      ],
      "name": "ERC721InvalidOperator",
      "type": "error"
    },
    {
      "inputs": [
        {
          "internalType": "address",
          "name": "owner",
          "type": "address"
        }
      ],
      "name": "ERC721InvalidOwner",
      "type": "error"
    },
    {
      "inputs": [
        {
          "internalType": "address",
          "name": "receiver",
          "type": "address"
        }
      ],
      "name": "ERC721InvalidReceiver",
      "type": "error"
    },
    {
      "inputs": [
        {
          "internalType": "address",
          "name": "sender",
          "type": "address"
        }
      ],
      "name": "ERC721InvalidSender",
      "type": "error"
    },
    {
      "inputs": [
        {
          "internalType": "uint256",
          "name": "tokenId",
          "type": "uint256"
        }
      ],
      "name": "ERC721NonexistentToken",
      "type": "error"
    },
    {
      "anonymous": false,
      "inputs": [
        {
          "indexed": true,
          "internalType": "address",
          "name": "owner",
          "type": "address"
        },
        {
          "indexed": true,
          "internalType": "address",
          "name": "approved",
          "type": "address"
        },
        {
          "indexed": true,
          "internalType": "uint256",
          "name": "tokenId",
          "type": "uint256"
        }
      ],
      "name": "Approval",
      "type": "event"
    },
    {
      "anonymous": false,
      "inputs": [
        {
          "indexed": true,
          "internalType": "address",
          "name": "owner",
          "type": "address"
        },
        {
          "indexed": true,
          "internalType": "address",
          "name": "operator",
          "type": "address"
        },
        {
          "indexed": false,
          "internalType": "bool",
          "name": "approved",
          "type": "bool"
        }
      ],
      "name": "ApprovalForAll",
      "type": "event"
    },
    {
      "anonymous": false,
      "inputs": [
        {
          "indexed": true,
          "internalType": "address",
          "name": "from",
          "type": "address"
        },
        {
          "indexed": true,
          "internalType": "address",
          "name": "to",
          "type": "address"
        },
        {
          "indexed": true,
          "internalType": "uint256",
          "name": "tokenId",
          "type": "uint256"
        }
      ],
      "name": "Transfer",
      "type": "event"
    },
    {
      "inputs": [
        {
          "internalType": "address",
          "name": "to",
          "type": "address"
        },
        {
          "internalType": "uint256",
          "name": "tokenId",
          "type": "uint256"
        }
      ],
      "name": "approve",
      "outputs": [],
      "stateMutability": "nonpayable",
      "type": "function"
    },
    {
      "inputs": [
        {
          "internalType": "address",
          "name": "owner",
          "type": "address"
        }
      ],
      "name": "balanceOf",
      "outputs": [
        {
          "internalType": "uint256",
          "name": "",
          "type": "uint256"
        }
      ],
      "stateMutability": "view",
      "type": "function"
    },
    {
      "inputs": [
        {
          "internalType": "uint256",
          "name": "tokenId",
          "type": "uint256"
        }
      ],
      "name": "getApproved",
      "outputs": [
        {
          "internalType": "address",
          "name": "",
          "type": "address"
        }
      ],
      "stateMutability": "view",
      "type": "function"
    },
    {
      "inputs": [
        {
          "internalType": "address",
          "name": "owner",
          "type": "address"
        },
        {
          "internalType": "address",
          "name": "operator",
          "type": "address"
        }
      ],
      "name": "isApprovedForAll",
      "outputs": [
        {
          "internalType": "bool",
          "name": "",
          "type": "bool"
        }
      ],
      "stateMutability": "view",
      "type": "function"
    },
    {
      "inputs": [
        {
          "internalType": "address",
          "name": "to",
          "type": "address"
        }
      ],
      "name": "mintNFT",
      "outputs": [],
      "stateMutability": "nonpayable",
      "type": "function"
    },
    {
      "inputs": [],
      "name": "name",
      "outputs": [
        {
          "internalType": "string",
          "name": "",
          "type": "string"
        }
      ],
      "stateMutability": "view",
      "type": "function"
    },
    {
      "inputs": [
        {
          "internalType": "uint256",
          "name": "tokenId",
          "type": "uint256"
        }
      ],
      "name": "ownerOf",
      "outputs": [
        {
          "internalType": "address",
          "name": "",
          "type": "address"
        }
      ],
      "stateMutability": "view",
      "type": "function"
    },
    {
      "inputs": [
        {
          "internalType": "address",
          "name": "from",
          "type": "address"
        },
        {
          "internalType": "address",
          "name": "to",
          "type": "address"
        },
        {
          "internalType": "uint256",
          "name": "tokenId",
          "type": "uint256"
        }
      ],
      "name": "safeTransferFrom",
      "outputs": [],
      "stateMutability": "nonpayable",
      "type": "function"
    },
    {
      "inputs": [
        {
          "internalType": "address",
          "name": "from",
          "type": "address"
        },
        {
          "internalType": "address",
          "name": "to",
          "type": "address"
        },
        {
          "internalType": "uint256",
          "name": "tokenId",
          "type": "uint256"
        },
        {
          "internalType": "bytes",
          "name": "data",
          "type": "bytes"
        }
      ],
      "name": "safeTransferFrom",
      "outputs": [],
      "stateMutability": "nonpayable",
      "type": "function"
    },
    {
      "inputs": [
        {
          "internalType": "address",
          "name": "operator",
          "type": "address"
        },
        {
          "internalType": "bool",
          "name": "approved",
          "type": "bool"
        }
      ],
      "name": "setApprovalForAll",
      "outputs": [],
      "stateMutability": "nonpayable",
      "type": "function"
    },
    {
      "inputs": [
        {
          "internalType": "bytes4",
          "name": "interfaceId",
          "type": "bytes4"
        }
      ],
      "name": "supportsInterface",
      "outputs": [
        {
          "internalType": "bool",
          "name": "",
          "type": "bool"
        }
      ],
      "stateMutability": "view",
      "type": "function"
    },
    {
      "inputs": [],
      "name": "symbol",
      "outputs": [
        {
          "internalType": "string",
          "name": "",
          "type": "string"
        }
      ],
      "stateMutability": "view",
      "type": "function"
    },
    {
      "inputs": [
        {
          "internalType": "uint256",
          "name": "tokenId",
          "type": "uint256"
        }
      ],
      "name": "tokenURI",
      "outputs": [
        {
          "internalType": "string",
          "name": "",
          "type": "string"
        }
      ],
      "stateMutability": "view",
      "type": "function"
    },
    {
      "inputs": [
        {
          "internalType": "address",
          "name": "from",
          "type": "address"
        },
        {
          "internalType": "address",
          "name": "to",
          "type": "address"
        },
        {
          "internalType": "uint256",
          "name": "tokenId",
          "type": "uint256"
        }
      ],
      "name": "transferFrom",
      "outputs": [],
      "stateMutability": "nonpayable",
      "type": "function"
    }
  ],
  "bytecode": "0x60806040523480156200001157600080fd5b506040516200243b3803806200243b833981810160405281019062000037919062000202565b818181600090816200004a9190620004d2565b5080600190816200005c9190620004d2565b50505060006006819055505050620005b9565b6000604051905090565b600080fd5b600080fd5b600080fd5b600080fd5b6000601f19601f8301169050919050565b7f4e487b7100000000000000000000000000000000000000000000000000000000600052604160045260246000fd5b620000d8826200008d565b810181811067ffffffffffffffff82111715620000fa57620000f96200009e565b5b80604052505050565b60006200010f6200006f565b90506200011d8282620000cd565b919050565b600067ffffffffffffffff82111562000140576200013f6200009e565b5b6200014b826200008d565b9050602081019050919050565b60005b83811015620001785780820151818401526020810190506200015b565b60008484015250505050565b60006200019b620001958462000122565b62000103565b905082815260208101848484011115620001ba57620001b962000088565b5b620001c784828562000158565b509392505050565b600082601f830112620001e757620001e662000083565b5b8151620001f984826020860162000184565b91505092915050565b600080604083850312156200021c576200021b62000079565b5b600083015167ffffffffffffffff8111156200023d576200023c6200007e565b5b6200024b85828601620001cf565b925050602083015167ffffffffffffffff8111156200026f576200026e6200007e565b5b6200027d85828601620001cf565b9150509250929050565b600081519050919050565b7f4e487b7100000000000000000000000000000000000000000000000000000000600052602260045260246000fd5b60006002820490506001821680620002da57607f821691505b602082108103620002f057620002ef62000292565b5b50919050565b60008190508160005260206000209050919050565b60006020601f8301049050919050565b600082821b905092915050565b6000600883026200035a7fffffffffffffffffffffffffffffffffffffffffffffffffffffffffffffffff826200031b565b6200036686836200031b565b95508019841693508086168417925050509392505050565b6000819050919050565b6000819050919050565b6000620003b3620003ad620003a7846200037e565b62000388565b6200037e565b9050919050565b6000819050919050565b620003cf8362000392565b620003e7620003de82620003ba565b84845462000328565b825550505050565b600090565b620003fe620003ef565b6200040b818484620003c4565b505050565b5b81811015620004335762000427600082620003f4565b60018101905062000411565b5050565b601f82111562000482576200044c81620002f6565b62000457846200030b565b8101602085101562000467578190505b6200047f62000476856200030b565b83018262000410565b50505b505050565b600082821c905092915050565b6000620004a76000198460080262000487565b1980831691505092915050565b6000620004c2838362000494565b9150826002028217905092915050565b620004dd8262000287565b67ffffffffffffffff811115620004f957620004f86200009e565b5b620005058254620002c1565b6200051282828562000437565b600060209050601f8311600181146200054a576000841562000535578287015190505b620005418582620004b4565b865550620005b1565b601f1984166200055a86620002f6565b60005b8281101562000584578489015182556001820191506020850194506020810190506200055d565b86831015620005a45784890151620005a0601f89168262000494565b8355505b6001600288020188555050505b505050505050565b611e7280620005c96000396000f3fe608060405234801561001057600080fd5b50600436106100ea5760003560e01c80636352211e1161008c578063a22cb46511610066578063a22cb4651461025b578063b88d4fde14610277578063c87b56dd14610293578063e985e9c5146102c3576100ea565b80636352211e146101dd57806370a082311461020d57806395d89b411461023d576100ea565b8063095ea7b3116100c8578063095ea7b31461016d57806323b872dd1461018957806342842e0e146101a557806354ba0f27146101c1576100ea565b806301ffc9a7146100ef57806306fdde031461011f578063081812fc1461013d575b600080fd5b61010960048036038101906101049190611659565b6102f3565b60405161011691906116a1565b60405180910390f35b6101276103d5565b604051610134919061174c565b60405180910390f35b610157600480360381019061015291906117a4565b610467565b6040516101649190611812565b60405180910390f35b61018760048036038101906101829190611859565b610483565b005b6101a3600480360381019061019e9190611899565b610499565b005b6101bf60048036038101906101ba9190611899565b61059b565b005b6101db60048036038101906101d691906118ec565b6105bb565b005b6101f760048036038101906101f291906117a4565b6105e4565b6040516102049190611812565b60405180910390f35b610227600480360381019061022291906118ec565b6105f6565b6040516102349190611928565b60405180910390f35b6102456106b0565b604051610252919061174c565b60405180910390f35b6102756004803603810190610270919061196f565b610742565b005b610291600480360381019061028c9190611ae4565b610758565b005b6102ad60048036038101906102a891906117a4565b610775565b6040516102ba919061174c565b60405180910390f35b6102dd60048036038101906102d89190611b67565b6107de565b6040516102ea91906116a1565b60405180910390f35b60007f80ac58cd000000000000000000000000000000000000000000000000000000007bffffffffffffffffffffffffffffffffffffffffffffffffffffffff1916827bffffffffffffffffffffffffffffffffffffffffffffffffffffffff191614806103be57507f5b5e139f000000000000000000000000000000000000000000000000000000007bffffffffffffffffffffffffffffffffffffffffffffffffffffffff1916827bffffffffffffffffffffffffffffffffffffffffffffffffffffffff1916145b806103ce57506103cd82610872565b5b9050919050565b6060600080546103e490611bd6565b80601f016020809104026020016040519081016040528092919081815260200182805461041090611bd6565b801561045d5780601f106104325761010080835404028352916020019161045d565b820191906000526020600020905b81548152906001019060200180831161044057829003601f168201915b5050505050905090565b6000610472826108dc565b5061047c82610964565b9050919050565b61049582826104906109a1565b6109a9565b5050565b600073ffffffffffffffffffffffffffffffffffffffff168273ffffffffffffffffffffffffffffffffffffffff160361050b5760006040517f64a0ae920000000000000000000000000000000000000000000000000000000081526004016105029190611812565b60405180910390fd5b600061051f838361051a6109a1565b6109bb565b90508373ffffffffffffffffffffffffffffffffffffffff168173ffffffffffffffffffffffffffffffffffffffff1614610595578382826040517f64283d7b00000000000000000000000000000000000000000000000000000000815260040161058c93929190611c07565b60405180910390fd5b50505050565b6105b683838360405180602001604052806000815250610758565b505050565b6001600660008282546105ce9190611c6d565b925050819055506105e181600654610bd5565b50565b60006105ef826108dc565b9050919050565b60008073ffffffffffffffffffffffffffffffffffffffff168273ffffffffffffffffffffffffffffffffffffffff16036106695760006040517f89c62b640000000000000000000000000000000000000000000000000000000081526004016106609190611812565b60405180910390fd5b600360008373ffffffffffffffffffffffffffffffffffffffff1673ffffffffffffffffffffffffffffffffffffffff168152602001908152602001600020549050919050565b6060600180546106bf90611bd6565b80601f01602080910402602001604051908101604052809291908181526020018280546106eb90611bd6565b80156107385780601f1061070d57610100808354040283529160200191610738565b820191906000526020600020905b81548152906001019060200180831161071b57829003601f168201915b5050505050905090565b61075461074d6109a1565b8383610bf3565b5050565b610763848484610499565b61076f84848484610d62565b50505050565b6060610780826108dc565b50600061078b610f19565b905060008151116107ab57604051806020016040528060008152506107d6565b806107b584610f30565b6040516020016107c6929190611cdd565b6040516020818303038152906040525b915050919050565b6000600560008473ffffffffffffffffffffffffffffffffffffffff1673ffffffffffffffffffffffffffffffffffffffff16815260200190815260200160002060008373ffffffffffffffffffffffffffffffffffffffff1673ffffffffffffffffffffffffffffffffffffffff16815260200190815260200160002060009054906101000a900460ff16905092915050565b60007f01ffc9a7000000000000000000000000000000000000000000000000000000007bffffffffffffffffffffffffffffffffffffffffffffffffffffffff1916827bffffffffffffffffffffffffffffffffffffffffffffffffffffffff1916149050919050565b6000806108e883610ffe565b9050600073ffffffffffffffffffffffffffffffffffffffff168173ffffffffffffffffffffffffffffffffffffffff160361095b57826040517f7e2732890000000000000000000000000000000000000000000000000000000081526004016109529190611928565b60405180910390fd5b80915050919050565b60006004600083815260200190815260200160002060009054906101000a900473ffffffffffffffffffffffffffffffffffffffff169050919050565b600033905090565b6109b6838383600161103b565b505050565b6000806109c784610ffe565b9050600073ffffffffffffffffffffffffffffffffffffffff168373ffffffffffffffffffffffffffffffffffffffff1614610a0957610a08818486611200565b5b600073ffffffffffffffffffffffffffffffffffffffff168173ffffffffffffffffffffffffffffffffffffffff1614610a9a57610a4b60008560008061103b565b6001600360008373ffffffffffffffffffffffffffffffffffffffff1673ffffffffffffffffffffffffffffffffffffffff168152602001908152602001600020600082825403925050819055505b600073ffffffffffffffffffffffffffffffffffffffff168573ffffffffffffffffffffffffffffffffffffffff1614610b1d576001600360008773ffffffffffffffffffffffffffffffffffffffff1673ffffffffffffffffffffffffffffffffffffffff168152602001908152602001600020600082825401925050819055505b846002600086815260200190815260200160002060006101000a81548173ffffffffffffffffffffffffffffffffffffffff021916908373ffffffffffffffffffffffffffffffffffffffff160217905550838573ffffffffffffffffffffffffffffffffffffffff168273ffffffffffffffffffffffffffffffffffffffff167fddf252ad1be2c89b69c2b068fc378daa952ba7f163c4a11628f55a4df523b3ef60405160405180910390a4809150509392505050565b610bef8282604051806020016040528060008152506112c4565b5050565b600073ffffffffffffffffffffffffffffffffffffffff168273ffffffffffffffffffffffffffffffffffffffff1603610c6457816040517f5b08ba18000000000000000000000000000000000000000000000000000000008152600401610c5b9190611812565b60405180910390fd5b80600560008573ffffffffffffffffffffffffffffffffffffffff1673ffffffffffffffffffffffffffffffffffffffff16815260200190815260200160002060008473ffffffffffffffffffffffffffffffffffffffff1673ffffffffffffffffffffffffffffffffffffffff16815260200190815260200160002060006101000a81548160ff0219169083151502179055508173ffffffffffffffffffffffffffffffffffffffff168373ffffffffffffffffffffffffffffffffffffffff167f17307eab39ab6107e8899845ad3d59bd9653f200f220920489ca2b5937696c3183604051610d5591906116a1565b60405180910390a3505050565b60008373ffffffffffffffffffffffffffffffffffffffff163b1115610f13578273ffffffffffffffffffffffffffffffffffffffff1663150b7a02610da66109a1565b8685856040518563ffffffff1660e01b8152600401610dc89493929190611d56565b6020604051808303816000875af1925050508015610e0457506040513d601f19601f82011682018060405250810190610e019190611db7565b60015b610e88573d8060008114610e34576040519150601f19603f3d011682016040523d82523d6000602084013e610e39565b606091505b506000815103610e8057836040517f64a0ae92000000000000000000000000000000000000000000000000000000008152600401610e779190611812565b60405180910390fd5b805181602001fd5b63150b7a0260e01b7bffffffffffffffffffffffffffffffffffffffffffffffffffffffff1916817bffffffffffffffffffffffffffffffffffffffffffffffffffffffff191614610f1157836040517f64a0ae92000000000000000000000000000000000000000000000000000000008152600401610f089190611812565b60405180910390fd5b505b50505050565b606060405180602001604052806000815250905090565b606060006001610f3f846112e0565b01905060008167ffffffffffffffff811115610f5e57610f5d6119b9565b5b6040519080825280601f01601f191660200182016040528015610f905781602001600182028036833780820191505090505b509050600082602001820190505b600115610ff3578080600190039150507f3031323334353637383961626364656600000000000000000000000000000000600a86061a8153600a8581610fe757610fe6611de4565b5b04945060008503610f9e575b819350505050919050565b60006002600083815260200190815260200160002060009054906101000a900473ffffffffffffffffffffffffffffffffffffffff169050919050565b80806110745750600073ffffffffffffffffffffffffffffffffffffffff168273ffffffffffffffffffffffffffffffffffffffff1614155b156111a8576000611084846108dc565b9050600073ffffffffffffffffffffffffffffffffffffffff168373ffffffffffffffffffffffffffffffffffffffff16141580156110ef57508273ffffffffffffffffffffffffffffffffffffffff168173ffffffffffffffffffffffffffffffffffffffff1614155b8015611102575061110081846107de565b155b1561114457826040517fa9fbf51f00000000000000000000000000000000000000000000000000000000815260040161113b9190611812565b60405180910390fd5b81156111a657838573ffffffffffffffffffffffffffffffffffffffff168273ffffffffffffffffffffffffffffffffffffffff167f8c5be1e5ebec7d5bd14f71427d1e84f3dd0314c0f7b2291e5b200ac8c7c3b92560405160405180910390a45b505b836004600085815260200190815260200160002060006101000a81548173ffffffffffffffffffffffffffffffffffffffff021916908373ffffffffffffffffffffffffffffffffffffffff16021790555050505050565b61120b838383611433565b6112bf57600073ffffffffffffffffffffffffffffffffffffffff168373ffffffffffffffffffffffffffffffffffffffff160361128057806040517f7e2732890000000000000000000000000000000000000000000000000000000081526004016112779190611928565b60405180910390fd5b81816040517f177e802f0000000000000000000000000000000000000000000000000000000081526004016112b6929190611e13565b60405180910390fd5b505050565b6112ce83836114f4565b6112db6000848484610d62565b505050565b600080600090507a184f03e93ff9f4daa797ed6e38ed64bf6a1f010000000000000000831061133e577a184f03e93ff9f4daa797ed6e38ed64bf6a1f010000000000000000838161133457611333611de4565b5b0492506040810190505b6d04ee2d6d415b85acef8100000000831061137b576d04ee2d6d415b85acef8100000000838161137157611370611de4565b5b0492506020810190505b662386f26fc1000083106113aa57662386f26fc1000083816113a05761139f611de4565b5b0492506010810190505b6305f5e10083106113d3576305f5e10083816113c9576113c8611de4565b5b0492506008810190505b61271083106113f85761271083816113ee576113ed611de4565b5b0492506004810190505b6064831061141b576064838161141157611410611de4565b5b0492506002810190505b600a831061142a576001810190505b80915050919050565b60008073ffffffffffffffffffffffffffffffffffffffff168373ffffffffffffffffffffffffffffffffffffffff16141580156114eb57508273ffffffffffffffffffffffffffffffffffffffff168473ffffffffffffffffffffffffffffffffffffffff1614806114ac57506114ab84846107de565b5b806114ea57508273ffffffffffffffffffffffffffffffffffffffff166114d283610964565b73ffffffffffffffffffffffffffffffffffffffff16145b5b90509392505050565b600073ffffffffffffffffffffffffffffffffffffffff168273ffffffffffffffffffffffffffffffffffffffff16036115665760006040517f64a0ae9200000000000000000000000000000000000000000000000000000000815260040161155d9190611812565b60405180910390fd5b6000611574838360006109bb565b9050600073ffffffffffffffffffffffffffffffffffffffff168173ffffffffffffffffffffffffffffffffffffffff16146115e85760006040517f73c6ac6e0000000000000000000000000000000000000000000000000000000081526004016115df9190611812565b60405180910390fd5b505050565b6000604051905090565b600080fd5b600080fd5b60007fffffffff0000000000000000000000000000000000000000000000000000000082169050919050565b61163681611601565b811461164157600080fd5b50565b6000813590506116538161162d565b92915050565b60006020828403121561166f5761166e6115f7565b5b600061167d84828501611644565b91505092915050565b60008115159050919050565b61169b81611686565b82525050565b60006020820190506116b66000830184611692565b92915050565b600081519050919050565b600082825260208201905092915050565b60005b838110156116f65780820151818401526020810190506116db565b60008484015250505050565b6000601f19601f8301169050919050565b600061171e826116bc565b61172881856116c7565b93506117388185602086016116d8565b61174181611702565b840191505092915050565b600060208201905081810360008301526117668184611713565b905092915050565b6000819050919050565b6117818161176e565b811461178c57600080fd5b50565b60008135905061179e81611778565b92915050565b6000602082840312156117ba576117b96115f7565b5b60006117c88482850161178f565b91505092915050565b600073ffffffffffffffffffffffffffffffffffffffff82169050919050565b60006117fc826117d1565b9050919050565b61180c816117f1565b82525050565b60006020820190506118276000830184611803565b92915050565b611836816117f1565b811461184157600080fd5b50565b6000813590506118538161182d565b92915050565b600080604083850312156118705761186f6115f7565b5b600061187e85828601611844565b925050602061188f8582860161178f565b9150509250929050565b6000806000606084860312156118b2576118b16115f7565b5b60006118c086828701611844565b93505060206118d186828701611844565b92505060406118e28682870161178f565b9150509250925092565b600060208284031215611902576119016115f7565b5b600061191084828501611844565b91505092915050565b6119228161176e565b82525050565b600060208201905061193d6000830184611919565b92915050565b61194c81611686565b811461195757600080fd5b50565b60008135905061196981611943565b92915050565b60008060408385031215611986576119856115f7565b5b600061199485828601611844565b92505060206119a58582860161195a565b9150509250929050565b600080fd5b600080fd5b7f4e487b7100000000000000000000000000000000000000000000000000000000600052604160045260246000fd5b6119f182611702565b810181811067ffffffffffffffff82111715611a1057611a0f6119b9565b5b80604052505050565b6000611a236115ed565b9050611a2f82826119e8565b919050565b600067ffffffffffffffff821115611a4f57611a4e6119b9565b5b611a5882611702565b9050602081019050919050565b82818337600083830152505050565b6000611a87611a8284611a34565b611a19565b905082815260208101848484011115611aa357611aa26119b4565b5b611aae848285611a65565b509392505050565b600082601f830112611acb57611aca6119af565b5b8135611adb848260208601611a74565b91505092915050565b60008060008060808587031215611afe57611afd6115f7565b5b6000611b0c87828801611844565b9450506020611b1d87828801611844565b9350506040611b2e8782880161178f565b925050606085013567ffffffffffffffff811115611b4f57611b4e6115fc565b5b611b5b87828801611ab6565b91505092959194509250565b60008060408385031215611b7e57611b7d6115f7565b5b6000611b8c85828601611844565b9250506020611b9d85828601611844565b9150509250929050565b7f4e487b7100000000000000000000000000000000000000000000000000000000600052602260045260246000fd5b60006002820490506001821680611bee57607f821691505b602082108103611c0157611c00611ba7565b5b50919050565b6000606082019050611c1c6000830186611803565b611c296020830185611919565b611c366040830184611803565b949350505050565b7f4e487b7100000000000000000000000000000000000000000000000000000000600052601160045260246000fd5b6000611c788261176e565b9150611c838361176e565b9250828201905080821115611c9b57611c9a611c3e565b5b92915050565b600081905092915050565b6000611cb7826116bc565b611cc18185611ca1565b9350611cd18185602086016116d8565b80840191505092915050565b6000611ce98285611cac565b9150611cf58284611cac565b91508190509392505050565b600081519050919050565b600082825260208201905092915050565b6000611d2882611d01565b611d328185611d0c565b9350611d428185602086016116d8565b611d4b81611702565b840191505092915050565b6000608082019050611d6b6000830187611803565b611d786020830186611803565b611d856040830185611919565b8181036060830152611d978184611d1d565b905095945050505050565b600081519050611db18161162d565b92915050565b600060208284031215611dcd57611dcc6115f7565b5b6000611ddb84828501611da2565b91505092915050565b7f4e487b7100000000000000000000000000000000000000000000000000000000600052601260045260246000fd5b6000604082019050611e286000830185611803565b611e356020830184611919565b939250505056fea26469706673582212209ad417216f9d31f5fc771c41c518a00651283bbc040921ef2fac536072291f8264736f6c63430008140033",
  "linkReferences": {},
  "deployedLinkReferences": {}
}