{
  "_format": "hh-sol-artifact-1",
  "contractName": "MyToken",
  "sourceName": "contracts/MyToken.sol",
  "abi": [
    {
      "inputs": [
        {
          "internalType": "string",
          "name": "name",
          "type": "string"
        },
        {
          "internalType": "string",
          "name": "symbol",
          "type": "string"
        }
      ],
      "stateMutability": "nonpayable",
      "type": "constructor"
    },
    {
      "inputs": [
        {
          "internalType": "address",
          "name": "spender",
          "type": "address"
        },
        {
          "internalType": "uint256",
          "name": "allowance",
          "type": "uint256"
        },
        {
          "internalType": "uint256",
          "name": "needed",
          "type": "uint256"
        }
      ],
      "name": "ERC20InsufficientAllowance",
      "type": "error"
    },
    {
      "inputs": [
        {
          "internalType": "address",
          "name": "sender",
          "type": "address"
        },
        {
          "internalType": "uint256",
          "name": "balance",
          "type": "uint256"
        },
        {
          "internalType": "uint256",
          "name": "needed",
          "type": "uint256"
        }
      ],
      "name": "ERC20InsufficientBalance",
      "type": "error"
    },
    {
      "inputs": [
        {
          "internalType": "address",
          "name": "approver",
          "type": "address"
        }
      ],
      "name": "ERC20InvalidApprover",
      "type": "error"
    },
    {
      "inputs": [
        {
          "internalType": "address",
          "name": "receiver",
          "type": "address"
        }
      ],
      "name": "ERC20InvalidReceiver",
      "type": "error"
    },
    {
      "inputs": [
        {
          "internalType": "address",
          "name": "sender",
          "type": "address"
        }
      ],
      "name": "ERC20InvalidSender",
      "type": "error"
    },
    {
      "inputs": [
        {
          "internalType": "address",
          "name": "spender",
          "type": "address"
        }
      ],
      "name": "ERC20InvalidSpender",
      "type": "error"
    },
    {
      "anonymous": false,
      "inputs": [
        {
          "indexed": true,
          "internalType": "address",
          "name": "owner",
          "type": "address"
        },
        {
          "indexed": true,
          "internalType": "address",
          "name": "spender",
          "type": "address"
        },
        {
          "indexed": false,
          "internalType": "uint256",
          "name": "value",
          "type": "uint256"
        }
      ],
      "name": "Approval",
      "type": "event"
    },
    {
      "anonymous": false,
      "inputs": [
        {
          "indexed": true,
          "internalType": "address",
          "name": "from",
          "type": "address"
        },
        {
          "indexed": true,
          "internalType": "address",
          "name": "to",
          "type": "address"
        },
        {
          "indexed": false,
          "internalType": "uint256",
          "name": "value",
          "type": "uint256"
        }
      ],
      "name": "Transfer",
      "type": "event"
    },
    {
      "inputs": [],
      "name": "_totalSupply",
      "outputs": [
        {
          "internalType": "uint256",
          "name": "",
          "type": "uint256"
        }
      ],
      "stateMutability": "view",
      "type": "function"
    },
    {
      "inputs": [
        {
          "internalType": "address",
          "name": "owner",
          "type": "address"
        },
        {
          "internalType": "address",
          "name": "spender",
          "type": "address"
        }
      ],
      "name": "allowance",
      "outputs": [
        {
          "internalType": "uint256",
          "name": "",
          "type": "uint256"
        }
      ],
      "stateMutability": "view",
      "type": "function"
    },
    {
      "inputs": [
        {
          "internalType": "address",
          "name": "spender",
          "type": "address"
        },
        {
          "internalType": "uint256",
          "name": "value",
          "type": "uint256"
        }
      ],
      "name": "approve",
      "outputs": [
        {
          "internalType": "bool",
          "name": "",
          "type": "bool"
        }
      ],
      "stateMutability": "nonpayable",
      "type": "function"
    },
    {
      "inputs": [
        {
          "internalType": "address",
          "name": "account",
          "type": "address"
        }
      ],
      "name": "balanceOf",
      "outputs": [
        {
          "internalType": "uint256",
          "name": "",
          "type": "uint256"
        }
      ],
      "stateMutability": "view",
      "type": "function"
    },
    {
      "inputs": [],
      "name": "decimals",
      "outputs": [
        {
          "internalType": "uint8",
          "name": "",
          "type": "uint8"
        }
      ],
      "stateMutability": "view",
      "type": "function"
    },
    {
      "inputs": [
        {
          "internalType": "address",
          "name": "to",
          "type": "address"
        },
        {
          "internalType": "uint256",
          "name": "amount",
          "type": "uint256"
        }
      ],
      "name": "mint",
      "outputs": [],
      "stateMutability": "nonpayable",
      "type": "function"
    },
    {
      "inputs": [],
      "name": "name",
      "outputs": [
        {
          "internalType": "string",
          "name": "",
          "type": "string"
        }
      ],
      "stateMutability": "view",
      "type": "function"
    },
    {
      "inputs": [],
      "name": "symbol",
      "outputs": [
        {
          "internalType": "string",
          "name": "",
          "type": "string"
        }
      ],
      "stateMutability": "view",
      "type": "function"
    },
    {
      "inputs": [],
      "name": "totalSupply",
      "outputs": [
        {
          "internalType": "uint256",
          "name": "",
          "type": "uint256"
        }
      ],
      "stateMutability": "view",
      "type": "function"
    },
    {
      "inputs": [
        {
          "internalType": "address",
          "name": "to",
          "type": "address"
        },
        {
          "internalType": "uint256",
          "name": "value",
          "type": "uint256"
        }
      ],
      "name": "transfer",
      "outputs": [
        {
          "internalType": "bool",
          "name": "",
          "type": "bool"
        }
      ],
      "stateMutability": "nonpayable",
      "type": "function"
    },
    {
      "inputs": [
        {
          "internalType": "address",
          "name": "from",
          "type": "address"
        },
        {
          "internalType": "address",
          "name": "to",
          "type": "address"
        },
        {
          "internalType": "uint256",
          "name": "value",
          "type": "uint256"
        }
      ],
      "name": "transferFrom",
      "outputs": [
        {
          "internalType": "bool",
          "name": "",
          "type": "bool"
        }
      ],
      "stateMutability": "nonpayable",
      "type": "function"
    }
  ],
  "bytecode": "0x608060405269021e19e0c9bab24000006005553480156200001f57600080fd5b506040516200150a3803806200150a833981810160405281019062000045919062000208565b81818160039081620000589190620004d8565b5080600490816200006a9190620004d8565b5050505050620005bf565b6000604051905090565b600080fd5b600080fd5b600080fd5b600080fd5b6000601f19601f8301169050919050565b7f4e487b7100000000000000000000000000000000000000000000000000000000600052604160045260246000fd5b620000de8262000093565b810181811067ffffffffffffffff821117156200010057620000ff620000a4565b5b80604052505050565b60006200011562000075565b9050620001238282620000d3565b919050565b600067ffffffffffffffff821115620001465762000145620000a4565b5b620001518262000093565b9050602081019050919050565b60005b838110156200017e57808201518184015260208101905062000161565b60008484015250505050565b6000620001a16200019b8462000128565b62000109565b905082815260208101848484011115620001c057620001bf6200008e565b5b620001cd8482856200015e565b509392505050565b600082601f830112620001ed57620001ec62000089565b5b8151620001ff8482602086016200018a565b91505092915050565b600080604083850312156200022257620002216200007f565b5b600083015167ffffffffffffffff81111562000243576200024262000084565b5b6200025185828601620001d5565b925050602083015167ffffffffffffffff81111562000275576200027462000084565b5b6200028385828601620001d5565b9150509250929050565b600081519050919050565b7f4e487b7100000000000000000000000000000000000000000000000000000000600052602260045260246000fd5b60006002820490506001821680620002e057607f821691505b602082108103620002f657620002f562000298565b5b50919050565b60008190508160005260206000209050919050565b60006020601f8301049050919050565b600082821b905092915050565b600060088302620003607fffffffffffffffffffffffffffffffffffffffffffffffffffffffffffffffff8262000321565b6200036c868362000321565b95508019841693508086168417925050509392505050565b6000819050919050565b6000819050919050565b6000620003b9620003b3620003ad8462000384565b6200038e565b62000384565b9050919050565b6000819050919050565b620003d58362000398565b620003ed620003e482620003c0565b8484546200032e565b825550505050565b600090565b62000404620003f5565b62000411818484620003ca565b505050565b5b8181101562000439576200042d600082620003fa565b60018101905062000417565b5050565b601f82111562000488576200045281620002fc565b6200045d8462000311565b810160208510156200046d578190505b620004856200047c8562000311565b83018262000416565b50505b505050565b600082821c905092915050565b6000620004ad600019846008026200048d565b1980831691505092915050565b6000620004c883836200049a565b9150826002028217905092915050565b620004e3826200028d565b67ffffffffffffffff811115620004ff57620004fe620000a4565b5b6200050b8254620002c7565b620005188282856200043d565b600060209050601f8311600181146200055057600084156200053b578287015190505b620005478582620004ba565b865550620005b7565b601f1984166200056086620002fc565b60005b828110156200058a5784890151825560018201915060208501945060208101905062000563565b86831015620005aa5784890151620005a6601f8916826200049a565b8355505b6001600288020188555050505b505050505050565b610f3b80620005cf6000396000f3fe608060405234801561001057600080fd5b50600436106100a95760003560e01c80633eaaf86b116100715780633eaaf86b1461016857806340c10f191461018657806370a08231146101a257806395d89b41146101d2578063a9059cbb146101f0578063dd62ed3e14610220576100a9565b806306fdde03146100ae578063095ea7b3146100cc57806318160ddd146100fc57806323b872dd1461011a578063313ce5671461014a575b600080fd5b6100b6610250565b6040516100c39190610b8f565b60405180910390f35b6100e660048036038101906100e19190610c4a565b6102e2565b6040516100f39190610ca5565b60405180910390f35b610104610305565b6040516101119190610ccf565b60405180910390f35b610134600480360381019061012f9190610cea565b61030f565b6040516101419190610ca5565b60405180910390f35b61015261033e565b60405161015f9190610d59565b60405180910390f35b610170610347565b60405161017d9190610ccf565b60405180910390f35b6101a0600480360381019061019b9190610c4a565b61034d565b005b6101bc60048036038101906101b79190610d74565b61035b565b6040516101c99190610ccf565b60405180910390f35b6101da6103a3565b6040516101e79190610b8f565b60405180910390f35b61020a60048036038101906102059190610c4a565b610435565b6040516102179190610ca5565b60405180910390f35b61023a60048036038101906102359190610da1565b610458565b6040516102479190610ccf565b60405180910390f35b60606003805461025f90610e10565b80601f016020809104026020016040519081016040528092919081815260200182805461028b90610e10565b80156102d85780601f106102ad576101008083540402835291602001916102d8565b820191906000526020600020905b8154815290600101906020018083116102bb57829003601f168201915b5050505050905090565b6000806102ed6104df565b90506102fa8185856104e7565b600191505092915050565b6000600254905090565b60008061031a6104df565b90506103278582856104f9565b61033285858561058d565b60019150509392505050565b60006012905090565b60055481565b6103578282610681565b5050565b60008060008373ffffffffffffffffffffffffffffffffffffffff1673ffffffffffffffffffffffffffffffffffffffff168152602001908152602001600020549050919050565b6060600480546103b290610e10565b80601f01602080910402602001604051908101604052809291908181526020018280546103de90610e10565b801561042b5780601f106104005761010080835404028352916020019161042b565b820191906000526020600020905b81548152906001019060200180831161040e57829003601f168201915b5050505050905090565b6000806104406104df565b905061044d81858561058d565b600191505092915050565b6000600160008473ffffffffffffffffffffffffffffffffffffffff1673ffffffffffffffffffffffffffffffffffffffff16815260200190815260200160002060008373ffffffffffffffffffffffffffffffffffffffff1673ffffffffffffffffffffffffffffffffffffffff16815260200190815260200160002054905092915050565b600033905090565b6104f48383836001610703565b505050565b60006105058484610458565b90507fffffffffffffffffffffffffffffffffffffffffffffffffffffffffffffffff81146105875781811015610577578281836040517ffb8f41b200000000000000000000000000000000000000000000000000000000815260040161056e93929190610e50565b60405180910390fd5b61058684848484036000610703565b5b50505050565b600073ffffffffffffffffffffffffffffffffffffffff168373ffffffffffffffffffffffffffffffffffffffff16036105ff5760006040517f96c6fd1e0000000000000000000000000000000000000000000000000000000081526004016105f69190610e87565b60405180910390fd5b600073ffffffffffffffffffffffffffffffffffffffff168273ffffffffffffffffffffffffffffffffffffffff16036106715760006040517fec442f050000000000000000000000000000000000000000000000000000000081526004016106689190610e87565b60405180910390fd5b61067c8383836108da565b505050565b600073ffffffffffffffffffffffffffffffffffffffff168273ffffffffffffffffffffffffffffffffffffffff16036106f35760006040517fec442f050000000000000000000000000000000000000000000000000000000081526004016106ea9190610e87565b60405180910390fd5b6106ff600083836108da565b5050565b600073ffffffffffffffffffffffffffffffffffffffff168473ffffffffffffffffffffffffffffffffffffffff16036107755760006040517fe602df0500000000000000000000000000000000000000000000000000000000815260040161076c9190610e87565b60405180910390fd5b600073ffffffffffffffffffffffffffffffffffffffff168373ffffffffffffffffffffffffffffffffffffffff16036107e75760006040517f94280d620000000000000000000000000000000000000000000000000000000081526004016107de9190610e87565b60405180910390fd5b81600160008673ffffffffffffffffffffffffffffffffffffffff1673ffffffffffffffffffffffffffffffffffffffff16815260200190815260200160002060008573ffffffffffffffffffffffffffffffffffffffff1673ffffffffffffffffffffffffffffffffffffffff1681526020019081526020016000208190555080156108d4578273ffffffffffffffffffffffffffffffffffffffff168473ffffffffffffffffffffffffffffffffffffffff167f8c5be1e5ebec7d5bd14f71427d1e84f3dd0314c0f7b2291e5b200ac8c7c3b925846040516108cb9190610ccf565b60405180910390a35b50505050565b600073ffffffffffffffffffffffffffffffffffffffff168373ffffffffffffffffffffffffffffffffffffffff160361092c5780600260008282546109209190610ed1565b925050819055506109ff565b60008060008573ffffffffffffffffffffffffffffffffffffffff1673ffffffffffffffffffffffffffffffffffffffff168152602001908152602001600020549050818110156109b8578381836040517fe450d38c0000000000000000000000000000000000000000000000000000000081526004016109af93929190610e50565b60405180910390fd5b8181036000808673ffffffffffffffffffffffffffffffffffffffff1673ffffffffffffffffffffffffffffffffffffffff16815260200190815260200160002081905550505b600073ffffffffffffffffffffffffffffffffffffffff168273ffffffffffffffffffffffffffffffffffffffff1603610a485780600260008282540392505081905550610a95565b806000808473ffffffffffffffffffffffffffffffffffffffff1673ffffffffffffffffffffffffffffffffffffffff168152602001908152602001600020600082825401925050819055505b8173ffffffffffffffffffffffffffffffffffffffff168373ffffffffffffffffffffffffffffffffffffffff167fddf252ad1be2c89b69c2b068fc378daa952ba7f163c4a11628f55a4df523b3ef83604051610af29190610ccf565b60405180910390a3505050565b600081519050919050565b600082825260208201905092915050565b60005b83811015610b39578082015181840152602081019050610b1e565b60008484015250505050565b6000601f19601f8301169050919050565b6000610b6182610aff565b610b6b8185610b0a565b9350610b7b818560208601610b1b565b610b8481610b45565b840191505092915050565b60006020820190508181036000830152610ba98184610b56565b905092915050565b600080fd5b600073ffffffffffffffffffffffffffffffffffffffff82169050919050565b6000610be182610bb6565b9050919050565b610bf181610bd6565b8114610bfc57600080fd5b50565b600081359050610c0e81610be8565b92915050565b6000819050919050565b610c2781610c14565b8114610c3257600080fd5b50565b600081359050610c4481610c1e565b92915050565b60008060408385031215610c6157610c60610bb1565b5b6000610c6f85828601610bff565b9250506020610c8085828601610c35565b9150509250929050565b60008115159050919050565b610c9f81610c8a565b82525050565b6000602082019050610cba6000830184610c96565b92915050565b610cc981610c14565b82525050565b6000602082019050610ce46000830184610cc0565b92915050565b600080600060608486031215610d0357610d02610bb1565b5b6000610d1186828701610bff565b9350506020610d2286828701610bff565b9250506040610d3386828701610c35565b9150509250925092565b600060ff82169050919050565b610d5381610d3d565b82525050565b6000602082019050610d6e6000830184610d4a565b92915050565b600060208284031215610d8a57610d89610bb1565b5b6000610d9884828501610bff565b91505092915050565b60008060408385031215610db857610db7610bb1565b5b6000610dc685828601610bff565b9250506020610dd785828601610bff565b9150509250929050565b7f4e487b7100000000000000000000000000000000000000000000000000000000600052602260045260246000fd5b60006002820490506001821680610e2857607f821691505b602082108103610e3b57610e3a610de1565b5b50919050565b610e4a81610bd6565b82525050565b6000606082019050610e656000830186610e41565b610e726020830185610cc0565b610e7f6040830184610cc0565b949350505050565b6000602082019050610e9c6000830184610e41565b92915050565b7f4e487b7100000000000000000000000000000000000000000000000000000000600052601160045260246000fd5b6000610edc82610c14565b9150610ee783610c14565b9250828201905080821115610eff57610efe610ea2565b5b9291505056fea264697066735822122047de503799e2effc26783f57beebe1c6a255f388e5fdebb926aef7a420d2afa064736f6c63430008140033",
  "linkReferences": {},
  "deployedLinkReferences": {}
}